{
  "_format": "hh-sol-artifact-1",
  "contractName": "BettingContract",
  "sourceName": "contracts/BettingContract.sol",
  "abi": [
    {
      "inputs": [
        {
          "internalType": "uint256",
          "name": "_betFee",
          "type": "uint256"
        }
      ],
      "stateMutability": "nonpayable",
      "type": "constructor"
    },
    {
      "anonymous": false,
      "inputs": [
        {
          "indexed": true,
          "internalType": "address",
          "name": "player",
          "type": "address"
        },
        {
          "indexed": false,
          "internalType": "uint8",
          "name": "number",
          "type": "uint8"
        },
        {
          "indexed": false,
          "internalType": "uint256",
          "name": "amount",
          "type": "uint256"
        }
      ],
      "name": "BetPlaced",
      "type": "event"
    },
    {
      "anonymous": false,
      "inputs": [],
      "name": "BettingStarted",
      "type": "event"
    },
    {
      "anonymous": false,
      "inputs": [
        {
          "indexed": false,
          "internalType": "uint8",
          "name": "winningNumber",
          "type": "uint8"
        }
      ],
      "name": "RewardsDistributed",
      "type": "event"
    },
    {
      "anonymous": false,
      "inputs": [
        {
          "indexed": true,
          "internalType": "address",
          "name": "winner",
          "type": "address"
        },
        {
          "indexed": false,
          "internalType": "uint8",
          "name": "winningNumber",
          "type": "uint8"
        }
      ],
      "name": "WinnerAnnounced",
      "type": "event"
    },
    {
      "anonymous": false,
      "inputs": [
        {
          "indexed": false,
          "internalType": "address",
          "name": "winner",
          "type": "address"
        },
        {
          "indexed": false,
          "internalType": "uint256",
          "name": "amount",
          "type": "uint256"
        }
      ],
      "name": "WinningsWithdrawn",
      "type": "event"
    },
    {
      "anonymous": false,
      "inputs": [
        {
          "indexed": false,
          "internalType": "uint256",
          "name": "winningNumber",
          "type": "uint256"
        }
      ],
      "name": "bettingEnded",
      "type": "event"
    },
    {
      "inputs": [
        {
          "internalType": "uint8",
          "name": "_number",
          "type": "uint8"
        }
      ],
      "name": "bet",
      "outputs": [],
      "stateMutability": "payable",
      "type": "function"
    },
    {
      "inputs": [],
      "name": "betFee",
      "outputs": [
        {
          "internalType": "uint256",
          "name": "",
          "type": "uint256"
        }
      ],
      "stateMutability": "view",
      "type": "function"
    },
    {
      "inputs": [
        {
          "internalType": "address",
          "name": "",
          "type": "address"
        }
      ],
      "name": "bets",
      "outputs": [
        {
          "internalType": "uint8",
          "name": "number",
          "type": "uint8"
        },
        {
          "internalType": "uint256",
          "name": "amount",
          "type": "uint256"
        }
      ],
      "stateMutability": "view",
      "type": "function"
    },
    {
      "inputs": [
        {
          "internalType": "uint256",
          "name": "",
          "type": "uint256"
        }
      ],
      "name": "betters",
      "outputs": [
        {
          "internalType": "address",
          "name": "",
          "type": "address"
        }
      ],
      "stateMutability": "view",
      "type": "function"
    },
    {
      "inputs": [],
      "name": "bettingOpen",
      "outputs": [
        {
          "internalType": "bool",
          "name": "",
          "type": "bool"
        }
      ],
      "stateMutability": "view",
      "type": "function"
    },
    {
      "inputs": [],
      "name": "endBetting",
      "outputs": [],
      "stateMutability": "nonpayable",
      "type": "function"
    },
    {
      "inputs": [],
      "name": "owner",
      "outputs": [
        {
          "internalType": "address payable",
          "name": "",
          "type": "address"
        }
      ],
      "stateMutability": "view",
      "type": "function"
    },
    {
      "inputs": [
        {
          "internalType": "address",
          "name": "",
          "type": "address"
        }
      ],
      "name": "rewards",
      "outputs": [
        {
          "internalType": "uint256",
          "name": "",
          "type": "uint256"
        }
      ],
      "stateMutability": "view",
      "type": "function"
    },
    {
      "inputs": [],
      "name": "startBetting",
      "outputs": [],
      "stateMutability": "nonpayable",
      "type": "function"
    },
    {
      "inputs": [],
      "name": "totalBetAmount",
      "outputs": [
        {
          "internalType": "uint256",
          "name": "",
          "type": "uint256"
        }
      ],
      "stateMutability": "view",
      "type": "function"
    },
    {
      "inputs": [],
      "name": "withdrawReward",
      "outputs": [],
      "stateMutability": "nonpayable",
      "type": "function"
    }
  ],
  "bytecode": "0x60806040523480156200001157600080fd5b50604051620016b8380380620016b88339818101604052810190620000379190620000e0565b336000806101000a81548173ffffffffffffffffffffffffffffffffffffffff021916908373ffffffffffffffffffffffffffffffffffffffff160217905550806001819055506000600360006101000a81548160ff0219169083151502179055505062000112565b600080fd5b6000819050919050565b620000ba81620000a5565b8114620000c657600080fd5b50565b600081519050620000da81620000af565b92915050565b600060208284031215620000f957620000f8620000a0565b5b60006200010984828501620000c9565b91505092915050565b61159680620001226000396000f3fe60806040526004361061009c5760003560e01c806389a78f1a1161006457806389a78f1a146101765780638da5cb5b146101b45780639fda5d62146101df578063c885bc581461021c578063d0821b0e14610233578063d187162f1461024f5761009c565b80630700037d146100a157806315b19770146100de578063613f459414610109578063826f57a114610134578063841e6ce91461014b575b600080fd5b3480156100ad57600080fd5b506100c860048036038101906100c39190610eb1565b610266565b6040516100d59190610ef7565b60405180910390f35b3480156100ea57600080fd5b506100f361027e565b6040516101009190610f2d565b60405180910390f35b34801561011557600080fd5b5061011e610291565b60405161012b9190610ef7565b60405180910390f35b34801561014057600080fd5b50610149610297565b005b34801561015757600080fd5b506101606103de565b60405161016d9190610ef7565b60405180910390f35b34801561018257600080fd5b5061019d60048036038101906101989190610eb1565b6103e4565b6040516101ab929190610f64565b60405180910390f35b3480156101c057600080fd5b506101c9610415565b6040516101d69190610fae565b60405180910390f35b3480156101eb57600080fd5b5061020660048036038101906102019190610ff5565b610439565b6040516102139190611031565b60405180910390f35b34801561022857600080fd5b50610231610478565b005b61024d60048036038101906102489190611078565b6105c7565b005b34801561025b57600080fd5b506102646107f8565b005b60056020528060005260406000206000915090505481565b600360009054906101000a900460ff1681565b60025481565b60008054906101000a900473ffffffffffffffffffffffffffffffffffffffff1673ffffffffffffffffffffffffffffffffffffffff163373ffffffffffffffffffffffffffffffffffffffff1614610325576040517f08c379a000000000000000000000000000000000000000000000000000000000815260040161031c90611102565b60405180910390fd5b600360009054906101000a900460ff16610374576040517f08c379a000000000000000000000000000000000000000000000000000000000815260040161036b9061116e565b60405180910390fd5b6000600360006101000a81548160ff021916908315150217905550600061039961091f565b90506103a48161096c565b7f1029a30a9a8ae79b85b9d07edb312336579e7569404468f493d6ece60d29faa2816040516103d39190610ef7565b60405180910390a150565b60015481565b60046020528060005260406000206000915090508060000160009054906101000a900460ff16908060010154905082565b60008054906101000a900473ffffffffffffffffffffffffffffffffffffffff1681565b6006818154811061044957600080fd5b906000526020600020016000915054906101000a900473ffffffffffffffffffffffffffffffffffffffff1681565b6000600560003373ffffffffffffffffffffffffffffffffffffffff1673ffffffffffffffffffffffffffffffffffffffff168152602001908152602001600020549050600081116104ff576040517f08c379a00000000000000000000000000000000000000000000000000000000081526004016104f6906111da565b60405180910390fd5b6000600560003373ffffffffffffffffffffffffffffffffffffffff1673ffffffffffffffffffffffffffffffffffffffff168152602001908152602001600020819055503373ffffffffffffffffffffffffffffffffffffffff166108fc829081150290604051600060405180830381858888f1935050505015801561058a573d6000803e3d6000fd5b507f24215bbaf0832fa4d6ffef16dee3971d8b714921fef3ad63f793d578983c6dc233826040516105bc9291906111fa565b60405180910390a150565b600360009054906101000a900460ff16610616576040517f08c379a000000000000000000000000000000000000000000000000000000000815260040161060d9061116e565b60405180910390fd5b60003411610659576040517f08c379a000000000000000000000000000000000000000000000000000000000815260040161065090611295565b60405180910390fd5b6000600460003373ffffffffffffffffffffffffffffffffffffffff1673ffffffffffffffffffffffffffffffffffffffff1681526020019081526020016000206001015403610707576006339080600181540180825580915050600190039060005260206000200160009091909190916101000a81548173ffffffffffffffffffffffffffffffffffffffff021916908373ffffffffffffffffffffffffffffffffffffffff1602179055505b60405180604001604052808260ff16815260200134815250600460003373ffffffffffffffffffffffffffffffffffffffff1673ffffffffffffffffffffffffffffffffffffffff16815260200190815260200160002060008201518160000160006101000a81548160ff021916908360ff16021790555060208201518160010155905050346002600082825461079e91906112e4565b925050819055503373ffffffffffffffffffffffffffffffffffffffff167f9f6b4cced64244a64465098f682029975b1614400b96bc6bd12c66808371916682346040516107ed929190610f64565b60405180910390a250565b60008054906101000a900473ffffffffffffffffffffffffffffffffffffffff1673ffffffffffffffffffffffffffffffffffffffff163373ffffffffffffffffffffffffffffffffffffffff1614610886576040517f08c379a000000000000000000000000000000000000000000000000000000000815260040161087d90611102565b60405180910390fd5b600360009054906101000a900460ff16156108d6576040517f08c379a00000000000000000000000000000000000000000000000000000000081526004016108cd90611364565b60405180910390fd5b6001600360006101000a81548160ff0219169083151502179055507f5fa3946aee4c80aba31c32455433a32c5f59b2ce59e03ca9eff6ce10c27e05b160405160405180910390a1565b60006001600a42443360405160200161093a939291906113ed565b6040516020818303038152906040528051906020012060001c61095d9190611459565b61096791906112e4565b905090565b60006064600154600254610980919061148a565b61098a91906114cc565b905060008160025461099c91906114fd565b90506000805b600680549050811015610ae2578460046000600684815481106109c8576109c7611531565b5b9060005260206000200160009054906101000a900473ffffffffffffffffffffffffffffffffffffffff1673ffffffffffffffffffffffffffffffffffffffff1673ffffffffffffffffffffffffffffffffffffffff16815260200190815260200160002060000160009054906101000a900460ff1660ff1603610ad5576004600060068381548110610a5e57610a5d611531565b5b9060005260206000200160009054906101000a900473ffffffffffffffffffffffffffffffffffffffff1673ffffffffffffffffffffffffffffffffffffffff1673ffffffffffffffffffffffffffffffffffffffff1681526020019081526020016000206001015482610ad291906112e4565b91505b80806001019150506109a2565b506000811115610cd35760005b600680549050811015610cd157846004600060068481548110610b1557610b14611531565b5b9060005260206000200160009054906101000a900473ffffffffffffffffffffffffffffffffffffffff1673ffffffffffffffffffffffffffffffffffffffff1673ffffffffffffffffffffffffffffffffffffffff16815260200190815260200160002060000160009054906101000a900460ff1660ff1603610cc457600082846004600060068681548110610baf57610bae611531565b5b9060005260206000200160009054906101000a900473ffffffffffffffffffffffffffffffffffffffff1673ffffffffffffffffffffffffffffffffffffffff1673ffffffffffffffffffffffffffffffffffffffff16815260200190815260200160002060010154610c22919061148a565b610c2c91906114cc565b9050806005600060068581548110610c4757610c46611531565b5b9060005260206000200160009054906101000a900473ffffffffffffffffffffffffffffffffffffffff1673ffffffffffffffffffffffffffffffffffffffff1673ffffffffffffffffffffffffffffffffffffffff1681526020019081526020016000206000828254610cbb91906112e4565b92505081905550505b8080600101915050610aef565b505b60008054906101000a900473ffffffffffffffffffffffffffffffffffffffff1673ffffffffffffffffffffffffffffffffffffffff166108fc849081150290604051600060405180830381858888f19350505050158015610d39573d6000803e3d6000fd5b5060005b600680549050811015610df3576004600060068381548110610d6257610d61611531565b5b9060005260206000200160009054906101000a900473ffffffffffffffffffffffffffffffffffffffff1673ffffffffffffffffffffffffffffffffffffffff1673ffffffffffffffffffffffffffffffffffffffff168152602001908152602001600020600080820160006101000a81549060ff0219169055600182016000905550508080600101915050610d3d565b5060066000610e029190610e10565b600060028190555050505050565b5080546000825590600052602060002090810190610e2e9190610e31565b50565b5b80821115610e4a576000816000905550600101610e32565b5090565b600080fd5b600073ffffffffffffffffffffffffffffffffffffffff82169050919050565b6000610e7e82610e53565b9050919050565b610e8e81610e73565b8114610e9957600080fd5b50565b600081359050610eab81610e85565b92915050565b600060208284031215610ec757610ec6610e4e565b5b6000610ed584828501610e9c565b91505092915050565b6000819050919050565b610ef181610ede565b82525050565b6000602082019050610f0c6000830184610ee8565b92915050565b60008115159050919050565b610f2781610f12565b82525050565b6000602082019050610f426000830184610f1e565b92915050565b600060ff82169050919050565b610f5e81610f48565b82525050565b6000604082019050610f796000830185610f55565b610f866020830184610ee8565b9392505050565b6000610f9882610e53565b9050919050565b610fa881610f8d565b82525050565b6000602082019050610fc36000830184610f9f565b92915050565b610fd281610ede565b8114610fdd57600080fd5b50565b600081359050610fef81610fc9565b92915050565b60006020828403121561100b5761100a610e4e565b5b600061101984828501610fe0565b91505092915050565b61102b81610e73565b82525050565b60006020820190506110466000830184611022565b92915050565b61105581610f48565b811461106057600080fd5b50565b6000813590506110728161104c565b92915050565b60006020828403121561108e5761108d610e4e565b5b600061109c84828501611063565b91505092915050565b600082825260208201905092915050565b7f4f6e6c7920746865206f776e65722063616e20706572666f726d000000000000600082015250565b60006110ec601a836110a5565b91506110f7826110b6565b602082019050919050565b6000602082019050818103600083015261111b816110df565b9050919050565b7f42657474696e67206973206e6f74206f70656e00000000000000000000000000600082015250565b60006111586013836110a5565b915061116382611122565b602082019050919050565b600060208201905081810360008301526111878161114b565b9050919050565b7f4e6f207265776172647320746f20776974686472617700000000000000000000600082015250565b60006111c46016836110a5565b91506111cf8261118e565b602082019050919050565b600060208201905081810360008301526111f3816111b7565b9050919050565b600060408201905061120f6000830185611022565b61121c6020830184610ee8565b9392505050565b7f42657420616d6f756e74206d7573742062652067726561746572207468616e2060008201527f7a65726f2e000000000000000000000000000000000000000000000000000000602082015250565b600061127f6025836110a5565b915061128a82611223565b604082019050919050565b600060208201905081810360008301526112ae81611272565b9050919050565b7f4e487b7100000000000000000000000000000000000000000000000000000000600052601160045260246000fd5b60006112ef82610ede565b91506112fa83610ede565b9250828201905080821115611312576113116112b5565b5b92915050565b7f42657474696e6720697320616c7265616479206f70656e000000000000000000600082015250565b600061134e6017836110a5565b915061135982611318565b602082019050919050565b6000602082019050818103600083015261137d81611341565b9050919050565b6000819050919050565b61139f61139a82610ede565b611384565b82525050565b60008160601b9050919050565b60006113bd826113a5565b9050919050565b60006113cf826113b2565b9050919050565b6113e76113e282610e73565b6113c4565b82525050565b60006113f9828661138e565b602082019150611409828561138e565b60208201915061141982846113d6565b601482019150819050949350505050565b7f4e487b7100000000000000000000000000000000000000000000000000000000600052601260045260246000fd5b600061146482610ede565b915061146f83610ede565b92508261147f5761147e61142a565b5b828206905092915050565b600061149582610ede565b91506114a083610ede565b92508282026114ae81610ede565b915082820484148315176114c5576114c46112b5565b5b5092915050565b60006114d782610ede565b91506114e283610ede565b9250826114f2576114f161142a565b5b828204905092915050565b600061150882610ede565b915061151383610ede565b925082820390508181111561152b5761152a6112b5565b5b92915050565b7f4e487b7100000000000000000000000000000000000000000000000000000000600052603260045260246000fdfea2646970667358221220fc7ad58b8866bbf4756c78af6ebb2910059bbd011ff9aa4f0b0527e7479d3f5364736f6c63430008180033",
  "linkReferences": {},
  "deployedLinkReferences": {}
}